{
  "contractName": "UserPermissions",
  "abi": [
    {
      "constant": true,
      "inputs": [
        {
          "internalType": "address",
          "name": "",
          "type": "address"
        },
        {
          "internalType": "address",
          "name": "",
          "type": "address"
        }
      ],
      "name": "permissions",
      "outputs": [
        {
          "internalType": "bool",
          "name": "",
          "type": "bool"
        }
      ],
      "payable": false,
      "stateMutability": "view",
      "type": "function"
    },
    {
      "constant": false,
      "inputs": [
        {
          "internalType": "address",
          "name": "_sender",
          "type": "address"
        },
        {
          "internalType": "address",
          "name": "_they",
          "type": "address"
        },
        {
          "internalType": "bool",
          "name": "_allowed",
          "type": "bool"
        }
      ],
      "name": "setPermissions",
      "outputs": [],
      "payable": false,
      "stateMutability": "nonpayable",
      "type": "function"
    },
    {
      "constant": true,
      "inputs": [
        {
          "internalType": "address",
          "name": "sender",
          "type": "address"
        },
        {
          "internalType": "address",
          "name": "they",
          "type": "address"
        }
      ],
      "name": "getPermitted",
      "outputs": [
        {
          "internalType": "bool",
          "name": "",
          "type": "bool"
        }
      ],
      "payable": false,
      "stateMutability": "view",
      "type": "function"
    }
  ],
  "bytecode": "0x608060405234801561001057600080fd5b5061033d806100206000396000f3fe608060405234801561001057600080fd5b50600436106100415760003560e01c80631f9838b514610046578063584be810146100c2578063d572677b1461013e575b600080fd5b6100a86004803603604081101561005c57600080fd5b81019080803573ffffffffffffffffffffffffffffffffffffffff169060200190929190803573ffffffffffffffffffffffffffffffffffffffff1690602001909291905050506101ae565b604051808215151515815260200191505060405180910390f35b610124600480360360408110156100d857600080fd5b81019080803573ffffffffffffffffffffffffffffffffffffffff169060200190929190803573ffffffffffffffffffffffffffffffffffffffff1690602001909291905050506101dd565b604051808215151515815260200191505060405180910390f35b6101ac6004803603606081101561015457600080fd5b81019080803573ffffffffffffffffffffffffffffffffffffffff169060200190929190803573ffffffffffffffffffffffffffffffffffffffff169060200190929190803515159060200190929190505050610270565b005b60006020528160005260406000206020528060005260406000206000915091509054906101000a900460ff1681565b60008060008373ffffffffffffffffffffffffffffffffffffffff1673ffffffffffffffffffffffffffffffffffffffff16815260200190815260200160002060008473ffffffffffffffffffffffffffffffffffffffff1673ffffffffffffffffffffffffffffffffffffffff16815260200190815260200160002060009054906101000a900460ff16905092915050565b806000808573ffffffffffffffffffffffffffffffffffffffff1673ffffffffffffffffffffffffffffffffffffffff16815260200190815260200160002060008473ffffffffffffffffffffffffffffffffffffffff1673ffffffffffffffffffffffffffffffffffffffff16815260200190815260200160002060006101000a81548160ff02191690831515021790555050505056fea265627a7a72315820fd8c39e5df5979195bc35afd3cd4d17be58e9e1663d333fea5d47e46ee46efa564736f6c63430005100032",
  "source": "pragma solidity >=0.4.22 <0.9.0;\n\ncontract UserPermissions {\n    mapping(address => mapping(address => bool)) public permissions;\n\n    function setPermissions(address _sender, address _they, bool _allowed) public {\n         permissions[_sender][_they] = _allowed;\n    }\n\n    function getPermitted(address sender, address they) public view returns(bool) {\n        return permissions[they][sender];\n    }\n}",
  "sourcePath": "/Users/ruben/Desktop/blockchain/Ethereum smart contracts/Smart contracts/contracts/UserPermissions.sol",
  "compiler": {
    "name": "solc",
    "version": "0.5.16+commit.9c3226ce.Emscripten.clang"
  },
  "schemaVersion": "3.3.4",
  "updatedAt": "2021-04-06T11:32:08.359Z",
  "devdoc": {
    "methods": {}
  },
  "userdoc": {
    "methods": {}
  }
}